:100000000C942A000C9494010C943C000C943C0039
:100010000C943C000C943C000C943C000C943C0070
:100020000C943C000C943C000C943C000C943C0060
:100030000C943C000C943C000C943C000C943C0050
:100040000C943C000C943C000C943C000C943C0040
:100050000C943C0011241FBECFE5D8E0DEBFCDBF1D
:1000600020E0A0E6B0E001C01D92A636B207E1F79D
:100070000E94D0010C9457030C9400001092610070
:10008000109260001092630010926200109265005E
:100090001092640060E081E40E94B50161E081E4B7
:1000A0000E94B50162E081E40E94B50160E082E453
:1000B0000E94B50161E082E40E94B50162E082E441
:1000C0000E94B50162E084E40E94AE010E942C030C
:1000D000789485B7836085BF8BB780648BBF0895A4
:1000E0008091600090916100009709F1019709F4F7
:1000F000ACC0F6CF62E081E40E94BC0181E090E0F8
:10010000909365008093640060E082E40E94BC01EB
:100110000E942F0362E081E40E94C30110926500F7
:100120001092640060E082E40E94C30134C0892B15
:1001300091F5E0CF109263001092620019C081E047
:1001400090E0909365008093640061E081E40E94F8
:10015000CA0161E082E40E94CA010E9443038091C7
:100160006200909163000196909363008093620017
:100170008091620090916300059708F310926500EA
:100180001092640061E081E40E94C30161E082E4B6
:100190000E94C30116C08091600090916100892B7C
:1001A00049F20FC060E081E40E94BC0162E082E499
:1001B0000E94BC010E942F0360E081E40E94C30101
:1001C0003CC08091600090916100892BB1F5EACF2D
:1001D00062E082E40E94C301109263001092620008
:1001E00019C081E090E0909365008093640061E025
:1001F00081E40E94CA0161E082E40E94CA010E9477
:100200004303809162009091630001969093630094
:10021000809362008091620090916300059708F3DB
:10022000109265001092640061E081E40E94C301B5
:1002300061E082E40E94C30153CF809160009091FD
:100240006100892B09F04CCFC3CF62E082E40E94A9
:10025000C30160E082E40E94BC011092630010922E
:10026000620013C061E081E40E94CA0161E082E49F
:100270000E94CA010E944303809162009091630032
:100280000196909363008093620080916200909148
:100290006300059738F360E082E40E94C30161E0E7
:1002A00081E40E94C30161E082E40E94C30160E036
:1002B00081E40E94BC0162E082E40E94BC010E94D1
:1002C0002F0360E081E40E94C3011092630010924A
:1002D000620013C061E081E40E94CA0161E082E42F
:1002E0000E94CA010E9443038091620090916300C2
:1002F00001969093630080936200809162009091D8
:100300006300059738F361E081E40E94C30161E076
:1003100082E40E94C30162E082E40E94C301109261
:10032000610010926000DCCE1F920F920FB60F9208
:1003300011248F939F9380916400909165000197A1
:1003400031F481E090E090936100809360009F9190
:100350008F910F900FBE0F901F901895982F862F9A
:1003600040E0692F0E94D7010895982F862F41E021
:10037000692F0E94D7010895982F862F41E0692F99
:100380000E9462020895982F862F40E0692F0E94F4
:1003900062020895982F862F692F0E94ED0208951A
:1003A0000E943E000E94700080E090E00895623458
:1003B00059F118F4613441F00895633409F444C0EC
:1003C000643409F460C0089541110EC04AB321E0BD
:1003D00030E0B90102C0660F771F8A95E2F7CB01C2
:1003E000809584238ABB0895413009F06AC04AB3DE
:1003F00021E030E0B90102C0660F771F8A95E2F76D
:10040000CB01842B8ABB089541110EC047B321E074
:1004100030E0B90102C0660F771F8A95E2F7CB0181
:100420008095842387BB0895413009F04AC047B3C3
:1004300021E030E0B90102C0660F771F8A95E2F72C
:10044000CB01842B87BB089541110EC044B321E03A
:1004500030E0B90102C0660F771F8A95E2F7CB0141
:100460008095842384BB0895413059F544B321E03D
:1004700030E0B90102C0660F771F8A95E2F7CB0121
:10048000842B84BB089541110EC041B321E030E0BC
:10049000B90102C0660F771F8A95E2F7CB018095FC
:1004A000842381BB0895413061F441B321E030E001
:1004B000B90102C0660F771F8A95E2F7CB01842B42
:1004C00081BB0895623459F118F4613441F0089504
:1004D000633409F444C0643409F460C008954111E0
:1004E0000EC04BB321E030E0B90102C0660F771FA8
:1004F0008A95E2F7CB01809584238BBB0895413028
:1005000009F06AC04BB321E030E0B90102C0660FC8
:10051000771F8A95E2F7CB01842B8BBB089541119D
:100520000EC048B321E030E0B90102C0660F771F6A
:100530008A95E2F7CB018095842388BB08954130EA
:1005400009F04AC048B321E030E0B90102C0660FAB
:10055000771F8A95E2F7CB01842B88BB0895411160
:100560000EC045B321E030E0B90102C0660F771F2D
:100570008A95E2F7CB018095842385BB08954130AD
:1005800059F545B321E030E0B90102C0660F771F8D
:100590008A95E2F7CB01842B85BB089541110EC0EB
:1005A00042B321E030E0B90102C0660F771F8A959F
:1005B000E2F7CB018095842382BB0895413061F43A
:1005C00042B321E030E0B90102C0660F771F8A957F
:1005D000E2F7CB01842B82BB08956234B1F018F4AA
:1005E000613431F008956334E9F0643441F10895E1
:1005F0004BB321E030E0B90102C0660F771F8A9546
:10060000E2F7CB0184278BBB089548B321E030E0AB
:10061000B90102C0660F771F8A95E2F7CB018427E4
:1006200088BB089545B321E030E0B90102C0660FF0
:10063000771F8A95E2F7CB01842785BB089542B3E3
:1006400021E030E0B90102C0660F771F8A95E2F71A
:10065000CB01842782BB089513BE12BE089583B7D1
:10066000816083BF20E030E008C008B600FEFDCF07
:1006700088B7816088BF2F5F3F4F2B348CE43807E9
:10068000A0F313BE089583B7816083BF20E030E0FC
:1006900008C008B600FEFDCF88B7816088BF2F5F15
:1006A0003F4F22348FE03807A0F313BE0895F8942B
:0206B000FFCF7A
:00000001FF
